{
  "_format": "hh-sol-artifact-1",
  "contractName": "Escrow",
  "sourceName": "contracts/Escrow.sol",
  "abi": [
    {
      "inputs": [
        {
          "internalType": "uint256",
          "name": "_id",
          "type": "uint256"
        }
      ],
      "name": "approve",
      "outputs": [],
      "stateMutability": "payable",
      "type": "function"
    },
    {
      "inputs": [
        {
          "internalType": "string",
          "name": "_title",
          "type": "string"
        },
        {
          "internalType": "uint256",
          "name": "_amount",
          "type": "uint256"
        },
        {
          "internalType": "address payable",
          "name": "_receiver",
          "type": "address"
        }
      ],
      "name": "createTransaction",
      "outputs": [],
      "stateMutability": "nonpayable",
      "type": "function"
    },
    {
      "inputs": [],
      "name": "getAllData",
      "outputs": [
        {
          "components": [
            {
              "internalType": "uint256",
              "name": "id",
              "type": "uint256"
            },
            {
              "internalType": "string",
              "name": "title",
              "type": "string"
            },
            {
              "internalType": "bool",
              "name": "workDone",
              "type": "bool"
            },
            {
              "internalType": "bool",
              "name": "approved",
              "type": "bool"
            },
            {
              "internalType": "uint256",
              "name": "amount",
              "type": "uint256"
            },
            {
              "internalType": "address payable",
              "name": "receiver",
              "type": "address"
            },
            {
              "internalType": "address",
              "name": "sender",
              "type": "address"
            }
          ],
          "internalType": "struct Escrow.Transaction[]",
          "name": "",
          "type": "tuple[]"
        }
      ],
      "stateMutability": "view",
      "type": "function"
    },
    {
      "inputs": [
        {
          "internalType": "uint256",
          "name": "_id",
          "type": "uint256"
        }
      ],
      "name": "getTransaction",
      "outputs": [
        {
          "internalType": "uint256",
          "name": "",
          "type": "uint256"
        },
        {
          "internalType": "string",
          "name": "",
          "type": "string"
        },
        {
          "internalType": "bool",
          "name": "",
          "type": "bool"
        },
        {
          "internalType": "bool",
          "name": "",
          "type": "bool"
        },
        {
          "internalType": "uint256",
          "name": "",
          "type": "uint256"
        },
        {
          "internalType": "address payable",
          "name": "",
          "type": "address"
        },
        {
          "internalType": "address",
          "name": "",
          "type": "address"
        }
      ],
      "stateMutability": "view",
      "type": "function"
    },
    {
      "inputs": [
        {
          "internalType": "uint256",
          "name": "_id",
          "type": "uint256"
        }
      ],
      "name": "markComplete",
      "outputs": [],
      "stateMutability": "nonpayable",
      "type": "function"
    }
  ],
  "bytecode": "0x60806040526000805534801561001457600080fd5b506119f3806100246000396000f3fe60806040526004361061004a5760003560e01c80632d10fa281461004f57806333ea3dc81461007a57806367067ed6146100bd5780639172dbc8146100e6578063b759f9541461010f575b600080fd5b34801561005b57600080fd5b5061006461012b565b60405161007191906113d7565b60405180910390f35b34801561008657600080fd5b506100a1600480360381019061009c91906110aa565b610312565b6040516100b497969594939291906114d9565b60405180910390f35b3480156100c957600080fd5b506100e460048036038101906100df91906110aa565b610630565b005b3480156100f257600080fd5b5061010d60048036038101906101089190611043565b6108b3565b005b610129600480360381019061012491906110aa565b610a64565b005b60606001805480602002602001604051908101604052809291908181526020016000905b8282101561030957838290600052602060002090600602016040518060e00160405290816000820154815260200160018201805461018c906116fd565b80601f01602080910402602001604051908101604052809291908181526020018280546101b8906116fd565b80156102055780601f106101da57610100808354040283529160200191610205565b820191906000526020600020905b8154815290600101906020018083116101e857829003601f168201915b505050505081526020016002820160009054906101000a900460ff161515151581526020016002820160019054906101000a900460ff16151515158152602001600382015481526020016004820160009054906101000a900473ffffffffffffffffffffffffffffffffffffffff1673ffffffffffffffffffffffffffffffffffffffff1673ffffffffffffffffffffffffffffffffffffffff1681526020016005820160009054906101000a900473ffffffffffffffffffffffffffffffffffffffff1673ffffffffffffffffffffffffffffffffffffffff1673ffffffffffffffffffffffffffffffffffffffff16815250508152602001906001019061014f565b50505050905090565b60006060600080600080600060018881548110610358577f4e487b7100000000000000000000000000000000000000000000000000000000600052603260045260246000fd5b906000526020600020906006020160000154600189815481106103a4577f4e487b7100000000000000000000000000000000000000000000000000000000600052603260045260246000fd5b906000526020600020906006020160010160018a815481106103ef577f4e487b7100000000000000000000000000000000000000000000000000000000600052603260045260246000fd5b906000526020600020906006020160020160009054906101000a900460ff1660018b81548110610448577f4e487b7100000000000000000000000000000000000000000000000000000000600052603260045260246000fd5b906000526020600020906006020160020160019054906101000a900460ff1660018c815481106104a1577f4e487b7100000000000000000000000000000000000000000000000000000000600052603260045260246000fd5b90600052602060002090600602016003015460018d815481106104ed577f4e487b7100000000000000000000000000000000000000000000000000000000600052603260045260246000fd5b906000526020600020906006020160040160009054906101000a900473ffffffffffffffffffffffffffffffffffffffff1660018e81548110610559577f4e487b7100000000000000000000000000000000000000000000000000000000600052603260045260246000fd5b906000526020600020906006020160050160009054906101000a900473ffffffffffffffffffffffffffffffffffffffff16858054610597906116fd565b80601f01602080910402602001604051908101604052809291908181526020018280546105c3906116fd565b80156106105780601f106105e557610100808354040283529160200191610610565b820191906000526020600020905b8154815290600101906020018083116105f357829003601f168201915b505050505095509650965096509650965096509650919395979092949650565b803373ffffffffffffffffffffffffffffffffffffffff1660018281548110610682577f4e487b7100000000000000000000000000000000000000000000000000000000600052603260045260246000fd5b906000526020600020906006020160040160009054906101000a900473ffffffffffffffffffffffffffffffffffffffff1673ffffffffffffffffffffffffffffffffffffffff161461070a576040517f08c379a000000000000000000000000000000000000000000000000000000000815260040161070190611419565b60405180910390fd5b816001151560018281548110610749577f4e487b7100000000000000000000000000000000000000000000000000000000600052603260045260246000fd5b906000526020600020906006020160020160019054906101000a900460ff16151514156107ab576040517f08c379a00000000000000000000000000000000000000000000000000000000081526004016107a290611499565b60405180910390fd5b60011515600182815481106107e9577f4e487b7100000000000000000000000000000000000000000000000000000000600052603260045260246000fd5b906000526020600020906006020160020160009054906101000a900460ff161515141561084b576040517f08c379a000000000000000000000000000000000000000000000000000000000815260040161084290611479565b60405180910390fd5b6001808481548110610886577f4e487b7100000000000000000000000000000000000000000000000000000000600052603260045260246000fd5b906000526020600020906006020160020160006101000a81548160ff021916908315150217905550505050565b60016040518060e0016040528060005481526020018581526020016000151581526020016000151581526020018481526020018373ffffffffffffffffffffffffffffffffffffffff1681526020013373ffffffffffffffffffffffffffffffffffffffff16815250908060018154018082558091505060019003906000526020600020906006020160009091909190915060008201518160000155602082015181600101908051906020019061096b929190610f0e565b5060408201518160020160006101000a81548160ff02191690831515021790555060608201518160020160016101000a81548160ff0219169083151502179055506080820151816003015560a08201518160040160006101000a81548173ffffffffffffffffffffffffffffffffffffffff021916908373ffffffffffffffffffffffffffffffffffffffff16021790555060c08201518160050160006101000a81548173ffffffffffffffffffffffffffffffffffffffff021916908373ffffffffffffffffffffffffffffffffffffffff16021790555050506001600080828254610a58919061160b565b92505081905550505050565b803373ffffffffffffffffffffffffffffffffffffffff1660018281548110610ab6577f4e487b7100000000000000000000000000000000000000000000000000000000600052603260045260246000fd5b906000526020600020906006020160050160009054906101000a900473ffffffffffffffffffffffffffffffffffffffff1673ffffffffffffffffffffffffffffffffffffffff1614610b3e576040517f08c379a0000000000000000000000000000000000000000000000000000000008152600401610b3590611439565b60405180910390fd5b8160018181548110610b79577f4e487b7100000000000000000000000000000000000000000000000000000000600052603260045260246000fd5b906000526020600020906006020160030154341115610bcd576040517f08c379a0000000000000000000000000000000000000000000000000000000008152600401610bc4906114b9565b60405180910390fd5b60018181548110610c07577f4e487b7100000000000000000000000000000000000000000000000000000000600052603260045260246000fd5b906000526020600020906006020160030154341015610c5b576040517f08c379a0000000000000000000000000000000000000000000000000000000008152600401610c52906113f9565b60405180910390fd5b826000151560018281548110610c9a577f4e487b7100000000000000000000000000000000000000000000000000000000600052603260045260246000fd5b906000526020600020906006020160020160009054906101000a900460ff1615151415610cfc576040517f08c379a0000000000000000000000000000000000000000000000000000000008152600401610cf390611459565b60405180910390fd5b6001151560018281548110610d3a577f4e487b7100000000000000000000000000000000000000000000000000000000600052603260045260246000fd5b906000526020600020906006020160020160019054906101000a900460ff1615151415610d9c576040517f08c379a0000000000000000000000000000000000000000000000000000000008152600401610d9390611499565b60405180910390fd5b600060018581548110610dd8577f4e487b7100000000000000000000000000000000000000000000000000000000600052603260045260246000fd5b906000526020600020906006020160040160009054906101000a900473ffffffffffffffffffffffffffffffffffffffff169050600060018681548110610e48577f4e487b7100000000000000000000000000000000000000000000000000000000600052603260045260246000fd5b90600052602060002090600602016003015490508173ffffffffffffffffffffffffffffffffffffffff166108fc829081150290604051600060405180830381858888f19350505050158015610ea2573d6000803e3d6000fd5b506001808781548110610ede577f4e487b7100000000000000000000000000000000000000000000000000000000600052603260045260246000fd5b906000526020600020906006020160020160016101000a81548160ff021916908315150217905550505050505050565b828054610f1a906116fd565b90600052602060002090601f016020900481019282610f3c5760008555610f83565b82601f10610f5557805160ff1916838001178555610f83565b82800160010185558215610f83579182015b82811115610f82578251825591602001919060010190610f67565b5b509050610f909190610f94565b5090565b5b80821115610fad576000816000905550600101610f95565b5090565b6000610fc4610fbf84611574565b61154f565b905082815260208101848484011115610fdc57600080fd5b610fe78482856116bb565b509392505050565b600081359050610ffe8161198f565b92915050565b600082601f83011261101557600080fd5b8135611025848260208601610fb1565b91505092915050565b60008135905061103d816119a6565b92915050565b60008060006060848603121561105857600080fd5b600084013567ffffffffffffffff81111561107257600080fd5b61107e86828701611004565b935050602061108f8682870161102e565b92505060406110a086828701610fef565b9150509250925092565b6000602082840312156110bc57600080fd5b60006110ca8482850161102e565b91505092915050565b60006110df838361131d565b905092915050565b6110f081611673565b82525050565b6110ff81611673565b82525050565b61110e81611661565b82525050565b61111d81611661565b82525050565b600061112e826115b5565b61113881856115d8565b93508360208202850161114a856115a5565b8060005b85811015611186578484038952815161116785826110d3565b9450611172836115cb565b925060208a0199505060018101905061114e565b50829750879550505050505092915050565b6111a181611685565b82525050565b6111b081611685565b82525050565b60006111c1826115c0565b6111cb81856115e9565b93506111db8185602086016116ca565b6111e4816117ed565b840191505092915050565b60006111fa826115c0565b61120481856115fa565b93506112148185602086016116ca565b61121d816117ed565b840191505092915050565b6000611235601c836115fa565b9150611240826117fe565b602082019050919050565b6000611258602b836115fa565b915061126382611827565b604082019050919050565b600061127b6025836115fa565b915061128682611876565b604082019050919050565b600061129e6017836115fa565b91506112a9826118c5565b602082019050919050565b60006112c1601c836115fa565b91506112cc826118ee565b602082019050919050565b60006112e46029836115fa565b91506112ef82611917565b604082019050919050565b6000611307601e836115fa565b915061131282611966565b602082019050919050565b600060e08301600083015161133560008601826113b9565b506020830151848203602086015261134d82826111b6565b91505060408301516113626040860182611198565b5060608301516113756060860182611198565b50608083015161138860808601826113b9565b5060a083015161139b60a08601826110e7565b5060c08301516113ae60c0860182611105565b508091505092915050565b6113c2816116b1565b82525050565b6113d1816116b1565b82525050565b600060208201905081810360008301526113f18184611123565b905092915050565b6000602082019050818103600083015261141281611228565b9050919050565b600060208201905081810360008301526114328161124b565b9050919050565b600060208201905081810360008301526114528161126e565b9050919050565b6000602082019050818103600083015261147281611291565b9050919050565b60006020820190508181036000830152611492816112b4565b9050919050565b600060208201905081810360008301526114b2816112d7565b9050919050565b600060208201905081810360008301526114d2816112fa565b9050919050565b600060e0820190506114ee600083018a6113c8565b818103602083015261150081896111ef565b905061150f60408301886111a7565b61151c60608301876111a7565b61152960808301866113c8565b61153660a08301856110f6565b61154360c0830184611114565b98975050505050505050565b600061155961156a565b9050611565828261172f565b919050565b6000604051905090565b600067ffffffffffffffff82111561158f5761158e6117be565b5b611598826117ed565b9050602081019050919050565b6000819050602082019050919050565b600081519050919050565b600081519050919050565b6000602082019050919050565b600082825260208201905092915050565b600082825260208201905092915050565b600082825260208201905092915050565b6000611616826116b1565b9150611621836116b1565b9250827fffffffffffffffffffffffffffffffffffffffffffffffffffffffffffffffff0382111561165657611655611760565b5b828201905092915050565b600061166c82611691565b9050919050565b600061167e82611691565b9050919050565b60008115159050919050565b600073ffffffffffffffffffffffffffffffffffffffff82169050919050565b6000819050919050565b82818337600083830152505050565b60005b838110156116e85780820151818401526020810190506116cd565b838111156116f7576000848401525b50505050565b6000600282049050600182168061171557607f821691505b602082108114156117295761172861178f565b5b50919050565b611738826117ed565b810181811067ffffffffffffffff82111715611757576117566117be565b5b80604052505050565b7f4e487b7100000000000000000000000000000000000000000000000000000000600052601160045260246000fd5b7f4e487b7100000000000000000000000000000000000000000000000000000000600052602260045260246000fd5b7f4e487b7100000000000000000000000000000000000000000000000000000000600052604160045260246000fd5b6000601f19601f8301169050919050565b7f4164642073756666696369656e742066756e6420616d6f756e74212100000000600082015250565b7f4e6f7420616e20617574686f72697a656420706572736f6e20746f204d61726b60008201527f20436f6d706c6574652121000000000000000000000000000000000000000000602082015250565b7f4e6f7420616e20617574686f72697a656420706572736f6e20746f204170707260008201527f6f76652121000000000000000000000000000000000000000000000000000000602082015250565b7f576f726b206973207374696c6c2070656e64696e672121000000000000000000600082015250565b7f416c7265616479204d61726b656420617320436f6d706c657465212100000000600082015250565b7f416c726561647920417070726f76656420616e6420436c6f736564205472616e60008201527f73616374696f6e21210000000000000000000000000000000000000000000000602082015250565b7f43616e277420616464206d6f7265207468616e20726571756972656421210000600082015250565b61199881611673565b81146119a357600080fd5b50565b6119af816116b1565b81146119ba57600080fd5b5056fea2646970667358221220d3a4b30231a4864fe4815c85d9a76832b3faa58bd627e9facbfeb3bad71c244e64736f6c63430008040033",
  "linkReferences": {},
  "deployedLinkReferences": {}
}